:060000000A128A110E280D
:10000800FE00030EF0000A08F1007F08F2000A1251
:100018008A15CC2F0A128A1111288313E130FD00AA
:100028000630FE009930FF00A03084000A128A15BD
:100038007D270A128A110A128A11FF260A128A11CA
:10004800DD00DB01DC0183010A128A11192D760813
:10005800803983120313A8007608A0002007AA009D
:10006800F51F3728382839282A142A0803193D2863
:100078003E284E282A0A031D422843284B280030D0
:10008800F6000030F5000030F4000030F300F517FA
:10009800F60156280030F6000030F5000030F40074
:1000A8000030F3007A088039A900290828060319C6
:1000B8005E285F28602828177A08A0002007A90072
:1000C800F91F6728682869282914290803196D2841
:1000D8006E287E28290A031D722873287B28003081
:1000E800FA000030F9000030F8000030F700F91786
:1000F800FA0186280030FA000030F9000030F800D4
:100108000030F7002A08290203188B288C28B22807
:10011800281F8F28902894288030FF007F08A80681
:100128002A08AB002908AA002B08A9007308AB000D
:100138007708F3002B08F7007408AB007808F40080
:100148002B08F8007508AB007908F5002B08F900B2
:100158007608AB007A08F6002B08FA00AB012908EC
:10016800A000A1012108A3002A082002A200031C64
:10017800A3032308803AFF0080307F02031DC628AE
:100188001A302202031CC928CA28012976087504D6
:1001980074047304031DD128D3280130D4280030F7
:1001A80083120313AB000030F6000030F500003076
:1001B800F4000030F3002908AA0009292B1CE528BF
:1001C800E628ED282B08A0000310200C0138AB000E
:1001D800EF280310AB0C731CF228F328F428AB1794
:1001E8000130A000760DF60CF50CF40CF30CA00B06
:1001F800F6280130FF007F08AA0783120313290895
:100208002A02031C08290929E228281B0C290D2980
:1002180056292A08031D112912291B290030F60026
:100228000030F5000030F4000030F300822A77082F
:10023800F307780803110318013E03192429F4076A
:10024800790803110318013E03192B29F5077A08C9
:1002580003110318013E03193229F607761C3529C4
:1002680036290A2A2B1C39293A2941292B08A000AA
:100278000310200C0138AB0043290310AB0C731C8E
:10028800462947294829AB170130A000760DF60CFE
:10029800F50CF40CF30CA00B4A290130FF007F0881
:1002A800AA070A2A7608803AFF007A08803A7F026D
:1002B800031D682979087502031D682978087402E6
:1002C800031D68297708730203186B296C29C42950
:1002D800FF30A000FF30A100FF30A200FF30A300D4
:1002E8007708A4007808A5007908A6007A08A7006E
:1002F8007308A4027408031C740F83298429A502B7
:100308007508031C750F89298A29A6027608031C1B
:10031800760F8F299029A7022408A007250803181B
:10032800250F97299829A10726080318260F9D2924
:100338009E29A20727080318270AA3072308F600FF
:100348002208F5002108F4002008F3008030FF009F
:100358007F08A806AB09AB0A2B08031DB429B529E9
:10036800D2290130F307003003180130F4070030B8
:1003780003180130F507003003180130F607D229B9
:100388007708F3027808031C780FF4027908031C35
:10039800790FF5027A08031C7A0FF60276087504BD
:1003A80074047304031DD929DA29062A2B08031DAE
:1003B800DE29DF29062A0030F6000030F50000307B
:1003C800F4000030F300822A0130A0000310F30D7E
:1003D800F40DF50DF60DA00BEA29AB1FF429F5294C
:1003E800F62973142B1CF929FA29FD290314AB0DDE
:1003F800FF290310AB0D2A080319032A042A062A29
:100408000130AA02F51F092A0A2AE829A901AB1F07
:100418000E2A0F2A1D2A2B087F390319142A152A98
:10042800182AA901A90A1D2A731C1B2A1C2A1D2A7D
:10043800152A29080319212A222A562A0130F307E6
:10044800003003180130F407003003180130F507B5
:10045800003003180130F607761C332A342A562A4E
:100468007308A0007408A1007508A2007608A3000C
:100478000130A400230DA30CA20CA10CA00CA40B0A
:100488003E2A2308F6002208F5002108F400200877
:10049800F3002A0A0319512A522A562A0130FF006A
:1004A8007F08AA072A0A03195A2A5B2A602A2A08F7
:1004B800031D5F2A602A6E2A0030F6000030F5001E
:1004C8000030F4000030F3002A08031D6C2A6D2A5E
:1004D8006E2AA8012A1C712A722A742AF517782A0A
:1004E8007F30FF007F08F5052A08A0000310200CC4
:1004F800F600A81F802A812A822AF617080083128C
:1005080003132D088039B7002D08AE002E07BE0052
:10051800AC1F8F2A902A912A3E143E080319952A67
:10052800962AA62A3E0A031D9A2A9B2AA32A003045
:10053800AD000030AC000030AB000030AA00AC17B2
:10054800AD01AE2A0030AD000030AC000030AB0089
:100558000030AA0029088039FF007F08B70629085B
:10056800AE002E07BF00A81FBA2ABB2ABC2A3F1418
:100578003F080319C02AC12AD12A3F0A031DC52AE8
:10058800C62ACE2A0030A9000030A8000030A700F3
:100598000030A600A817A901D92A0030A900003008
:1005A800A8000030A7000030A60029082804270466
:1005B8002604031DE02AE12AFA2A0030AD000030A3
:1005C800AC000030AB000030AA008030AC047F30B3
:1005D800AD043708FF007F08AD042D08A9002C08DA
:1005E800A8002B08A7002A08A600512C3E08031DC6
:1005F800FE2AFF2A082B0030A9000030A80000308E
:10060800A7000030A600512C3E08AE00AF012F080D
:10061800B1003F082E02B000031CB10330087F3E32
:10062800B80031080318013E003EB9002D08B60095
:100638002C08B5002B08B4002A08B3000030AD0020
:100648000030AC000030AB000030AA000030BD0024
:100658000030BC000030BB000030BA00BF017E2B68
:100668003F080319382B392B592B0130AE000310E2
:10067800B30DB40DB50DB60DAE0B3B2B0130AE006E
:100688000310AA0DAB0DAC0DAD0DAE0B442BBD1F69
:100698004E2B4F2B502B2A140130AE000310BA0DED
:1006A800BB0DBC0DBD0DAE0B522B29083602031D28
:1006B800672B28083502031D672B27083402031D02
:1006C800672B26083302031C6A2B6B2B7A2B3D17EA
:1006D8002608B3022708031C270FB4022808031CA6
:1006E800280FB5022908031C290FB6020130FF00A4
:1006F8007F08BF071A303F02031C832B842B342B3F
:10070800360835043404330403198B2B8C2BAB2B9C
:100718003A14AB2B0130AE000310AA0DAB0DAC0D93
:10072800AD0DAE0B902BBD1F9A2B9B2B9C2B2A1427
:100738000130AE000310BA0DBB0DBC0DBD0DAE0BE4
:100748009E2BFF30B8070318B90AFF30B907AC1F52
:10075800AE2BAF2B8E2BBF01BD1FB32BB42BD02BD1
:10076800FF303A05AE00FF303B05AF00FF303C05D7
:10077800B0007F303D05B100310830042F042E044D
:100788000319C72BC82BCB2BBF01BF0AD02B2A1CA0
:10079800CE2BCF2BD02BC82B3F080319D42BD52B0E
:1007A800062C0130AA07003003180130AB070030CF
:1007B80003180130AC07003003180130AD072D1CB9
:1007C800E62BE72B062C2A08AE002B08AF002C08D6
:1007D800B0002D08B1000130B200310DB10CB00CE1
:1007E800AF0CAE0CB20BF12B3108AD003008AC00E9
:1007F8002F08AB002E08AA000130B8070318B90A61
:100808000030B9073908803AFF0080307F02031DA5
:100818000F2CFF303802031C122C132C212CFF3014
:1008280083120313B8000030B9000030AD00003067
:10083800AC000030AB000030AA0083120313390863
:10084800803AFF0080307F02031D2C2C01303802D3
:1008580003182F2C302C3D2C83120313B801B90137
:100868000030AD000030AC000030AB000030AA0012
:10087800B701831203133808BE003E1C442C452CD4
:10088800472CAC174B2C7F30FF007F08AC053E0887
:10089800AE0003102E0CAD00ED2A080083120313DE
:1008A8004A08F3004B08F400F501F60100300A127B
:1008B8008A11DF250A128A11760883120313A90008
:1008C8007508A8007408A7007308A6004830AD0092
:1008D800C330AC005030AB000030AA000A128A11B5
:1008E80083220A128A11831203132908D3002808C5
:1008F800D2002708D1002608D0005308AF005208BC
:10090800AE005108AD005008AC004730B30080304D
:10091800B2000030B1000030B0000A128A15A827D2
:100928000A128A11831203132F08D3002E08D2004B
:100938002D08D1002C08D0005308AD005208AC0097
:100948005108AB005008AA004330A9008030A80025
:100958000030A7000030A6000A128A1183220A126A
:100968008A11831203132908C3002808C200270824
:10097800C1002608C0000A128A1188270A128A11A3
:10098800831203134008DC005308B3005208B20076
:100998005108B1005008B0005C08CE00CF014E08E5
:1009A800CF00CE014E08F3004F08F4000030F41BCE
:1009B800FF30F500F60001300A128A11DF250A120D
:1009C8008A11760883120313AF007508AE00740805
:1009D800AD007308AC000A128A15A8270A128A11FA
:1009E800831203132F08C3002E08C2002D08C1006C
:1009F8002C08C0000A128A1188270A128A11831249
:100A080003134008DB005C088F005B088E0010149D
:100A18004D08F4004C08F3000A128A158C270A12B4
:100A28008A11831203131010080083160317890113
:100A38008801831603130711831203130711831602
:100A480003130614861483120313860183160313F3
:100A58008801831203138801101090109016101249
:100A6800831603130C14831203130C108B170B1724
:100A78000B168B1083160313811301309500011395
:100A880083120313861C492D4A2DD82DDA018618A6
:100A98004E2D4F2D592DC92D03308800692D073053
:100AA8008800692D01308800692D5D08D400D501C2
:100AB8005508003A0319612D562D5408023A0319B6
:100AC800502D013A0319532D562D5D08D400D50138
:100AD8005408F3005508F4005A08A03E8400831314
:100AE8000008D600D7015608F5005708F6000A1284
:100AF8008A11DA260A128A11740883120313D9009C
:100B08007308D8005A08D4005407013E84000A121A
:100B18008A1100270A128A11CA000A128A110027AC
:100B28000A128A11CB005908F4005808F3006430FF
:100B3800F5000030F6000A128A11DA260A128A1124
:100B4800740883120313CD007308CC000A128A11AB
:100B580052240A128A11023083120313D600453038
:100B6800D500A930D400D40BB72DD50BB72DD60B93
:100B7800B72D0130FF007F0883120313DA074130D5
:100B88005A02031CC82DC92D4B2D4D308312031357
:100B9800D6001930D5004F30D400D40BD12DD50B49
:100BA800D12DD60BD12D442D8801DD01DD0A442D30
:100BB8000A128A110E2883120313A00020080319B1
:100BC800E62DE72DFB2DF61FEA2DEB2DFB2D7309E6
:100BD800A2007409A3007509A4007609A500A20A59
:100BE8000319A30A0319A40A0319A50A032E7608F0
:100BF800A5007508A4007408A3007308A20076086D
:100C0800750474047304031D0A2E0B2E142E003071
:100C1800F6000030F5000030F4000030F300982EA4
:100C28009630A100242E0130FF007F08A107013073
:100C38000310A50CA40CA30CA20CFF3E031D1C2E34
:100C4800FE302505031D292E2A2E172E462E01308B
:100C5800FF007F08A1070130A20700300318013008
:100C6800A307003003180130A4070030031801302F
:100C7800A50701300310A50CA40CA30CA20CFF3E81
:100C8800031D3E2EFF302505031D4B2E4C2E2B2E0B
:100C9800582E0130A1020130F7000310A20DA30D58
:100CA800A40DA50DF70B512EA41B5B2E5C2E622EF6
:100CB800023021020318612E622E4D2E2118652E56
:100CC800662E6E2EFF30A205FF30A3057F30A405E7
:100CD800FF30A5050310A10C2108F700F801F90160
:100CE800FA0118300310F70DF80DF90DFA0DFF3E53
:100CF800031D762E7708A2047808A3047908A404B3
:100D08007A08A504200803198A2E8B2E902EF61F28
:100D18008E2E8F2E902EA5172508F6002408F50094
:100D28002308F4002208F3000800013401340234D7
:100D380002340134013402340234013401340234FF
:100D480002340134013401340134023401340134F1
:100D580002340234013401340234023401340134DF
:100D680002340234013401340234023401340134CF
:100D780002340234013401340234023401340134BF
:100D880002340234013401340134013402340134B0
:100D9800013402340234023401340134023401349F
:100DA800013402340234013401340434F701F80107
:100DB800731CDF2EE02EE62E7508F7070318F80AD5
:100DC8007608F80701300310F50DF60DFF3E031DF8
:100DD800E72E01300310F40CF30CFF3E031DEE2E3A
:100DE80073087404031DF92EFA2EDC2E7808F4001B
:100DF8007708F3000800013407308A000408840AE1
:100E080082070034F7340034263401344A3401347C
:100E18004A3401344A340134723401348834013498
:100E28008834013488340134B834013472340134DC
:100E3800723401344A3401342634013426340134FE
:100E48004A3401344A340134F73400342634013446
:100E58004A3401344A3401344A3401347234013496
:100E6800883401348834013488340134B834013486
:100E780072340134723401344A3401342634013472
:100E88004A3401344A340134F73400342634013406
:100E98004A3401344A3401344A3401348834013440
:100EA800B8340134B8340134B8340134EE34013480
:100EB8000B3402340B340234EE340134B8340134C8
:100EC800EE3401344A3401344A3401344A340134AA
:100ED800723401348834013488340134B83401342C
:100EE800EE3401344A3401344A3401344A3401348A
:100EF8008834013472340134723401344A34013490
:100F0800263401344A340134031083120313420D8A
:100F1800430DC9004908031D922F932F9C2F0030C1
:100F2800C3000030C2000030C1000030C000FF2FF5
:100F38004008C4004108C5004208C6004308C7006D
:100F48001F300310C70CC60CC50CC40CFF3E031D94
:100F5800A52F4408C800C217FF30C005FF30C105DF
:100F6800FF30C2050030C3059630C902C91FBD2F26
:100F7800BE2FD82F4908803A973E0318C42FC52F93
:100F8800C62F932F01300310C30CC20CC10CC00C28
:100F9800FF3E031DC72F0130FF007F08C907031D4F
:100FA800D62FD72FC62FEF2F20304902031CDD2F55
:100FB800DE2FEA2F932F0130C4000310C00DC10D9E
:100FC800C20DC30DC40BE12F0130C9024908031D2E
:100FD800EE2FEF2FDF2F48080319F32FF42FFF2FE1
:100FE800C009C109C209C309C00A0319C10A031902
:080FF800C20A0319C30A080034
:101EF2007E088A007F0882000A128A1579270A1250
:101F02008A158000840A04087D0603190034FF0A3A
:101F12000319FE0A7D2FF701F8019D2F0730F60005
:101F22007D30F500F50B932FF60B932F0130F70759
:101F32000318F80A0030F80774087802031DA32F6B
:101F420073087702031CA62FA72F8F2F080080305B
:101F520083120313AF063308F6003208F500310886
:101F6200F4003008F3002F08FA002E08F9002D08BB
:101F7200F8002C08F7000A128A112B200A128A157F
:101F8200760883120313AF007508AE007408AD0023
:101F92007308AC0008008B1CCF2FD02FDF2F01302D
:101FA200FF007F0883120313DD0704305D02031C68
:101FB200DB2FDC2FDE2FDD01DD0A8B1083120313F2
:101FC2000C1CE42FE52FF72F5C088F005B088E00B6
:101FD2000310071D03140318EF2FF32F83120313AB
:101FE2000715F62F8312031307110C107208FF0056
:0E1FF20071088A00700E8300FE0E7E0E09003C
:08400000FF3FFF3FFF3FFF3FC0
:04400E00E220FF3F6E
:00000001FF
