:100000000A128A110C280134FE00030EF1000A08BE
:10001000F2000A128A15CE2F0A128A110F288313B2
:10002000E130FD000630FE009B30FF00A030840070
:100030000A128A157E270A128A110A128A110320CF
:100040000A128A11DD00DB01DC0183010A128A1128
:100050001B2D7608803983120313A8007608A000B0
:100060002007AA00F51F3528362837282A142A0821
:1000700003193B283C284C282A0A031D4028412804
:1000800049280030F6000030F5000030F400003060
:10009000F300F517F60154280030F6000030F500A3
:1000A0000030F4000030F3007A088039A9002908F4
:1000B000280603195C285D285E2828177A08A00006
:1000C0002007A900F91F6528662867282914290830
:1000D00003196B286C287C28290A031D70287128B5
:1000E00079280030FA000030F9000030F8000030C4
:1000F000F700F917FA0184280030FA000030F900FF
:100100000030F8000030F7002A0829020318892877
:100110008A28B028281F8D288E2892288030A00099
:100120002008A8062A08AB002908AA002B08A90065
:100130007308AB007708F3002B08F7007408AB00D6
:100140007808F4002B08F8007508AB007908F50072
:100150002B08F9007608AB007A08F6002B08FA00A5
:10016000AB012908A000A1012108A3002A08200250
:10017000A200031CA3032308803AFF0080307F0203
:10018000031DC4281A302202031CC728C828FF28D0
:100190007608750474047304031DCF28D128013038
:1001A000D228003083120313AB000030F600003079
:1001B000F5000030F4000030F3002908AA000729F8
:1001C0002B1CE328E428EB282B08A0000310200CAC
:1001D0000138AB00ED280310AB0C731CF028F1289C
:1001E000F228AB170130A000760DF60CF50CF40CDC
:1001F000F30CA00BF4280130A0002008AA078312FA
:10020000031329082A02031C06290729E028281BB2
:100210000A290B2954292A08031D0F2910291929F5
:100220000030F6000030F5000030F4000030F3003C
:10023000802A7708F307780803110318013E031991
:100240002229F407790803110318013E031929290B
:10025000F5077A0803110318013E03193029F60740
:10026000761C33293429082A2B1C372938293F29A1
:100270002B08A0000310200C0138AB00412903100B
:10028000AB0C731C442945294629AB170130A0004B
:10029000760DF60CF50CF40CF30CA00B482901308C
:1002A000A0002008AA07082A7608803AFF007A08EA
:1002B000803A7F02031D662979087502031D6629AD
:1002C00078087402031D66297708730203186929E8
:1002D0006A29C229FF30A000FF30A100FF30A20030
:1002E000FF30A3007708A4007808A5007908A600CD
:1002F0007A08A7007308A4027408031C740F8129EC
:100300008229A5027508031C750F87298829A60272
:100310007608031C760F8D298E29A7022408A007D2
:1003200025080318250F95299629A10726080318E3
:10033000260F9B299C29A20727080318270AA30731
:100340002308F6002208F5002108F4002008F30035
:100350008030A0002008A806AB09AB0A2B08031DBB
:10036000B229B329D0290130F30700300318013036
:10037000F407003003180130F5070030031801308E
:10038000F607D0297708F3027808031C780FF402E7
:100390007908031C790FF5027A08031C7A0FF6021C
:1003A0007608750474047304031DD729D829042A18
:1003B0002B08031DDC29DD29042A0030F60000305B
:1003C000F5000030F4000030F300802A0130A00076
:1003D0000310F30DF40DF50DF60DA00BE829AB1F7E
:1003E000F229F329F42973142B1CF729F829FB2986
:1003F0000314AB0DFD290310AB0D2A080319012AC4
:10040000022A042A0130AA02F51F072A082AE6292F
:10041000A901AB1F0C2A0D2A1B2A2B087F390319AF
:10042000122A132A162AA901A90A1B2A731C192A9F
:100430001A2A1B2A132A290803191F2A202A542A98
:100440000130F307003003180130F40700300318BF
:100450000130F507003003180130F607761C312A09
:10046000322A542A7308A0007408A1007508A2005B
:100470007608A3000130A400230DA30CA20CA10C4C
:10048000A00CA40B3C2A2308F6002208F500210842
:10049000F4002008F3002A0A03194F2A502A542A8C
:1004A0000130A0002008AA072A0A0319582A592A4D
:1004B0005E2A2A08031D5D2A5E2A6C2A0030F60097
:1004C0000030F5000030F4000030F3002A08031D6E
:1004D0006A2A6B2A6C2AA8012A1C6F2A702A722A9F
:1004E000F517762A7F30A0002008F5052A08A0001D
:1004F0000310200CF600A81F7E2A7F2A802AF617F8
:100500000800831203132D088039B7002D08AE00B0
:100510002E07BE00AC1F8D2A8E2A8F2A3E143E085D
:100520000319932A942AA42A3E0A031D982A992A79
:10053000A12A0030AD000030AC000030AB0000302C
:10054000AA00AC17AD01AC2A0030AD000030AC0001
:100550000030AB000030AA0029088039AE002E0818
:10056000B7062908AE002E07BF00A81FB82AB92A6F
:10057000BA2A3F143F080319BE2ABF2ACF2A3F0ACE
:10058000031DC32AC42ACC2A0030A9000030A800C9
:100590000030A7000030A600A817A901D72A003014
:1005A000A9000030A8000030A7000030A6002908EC
:1005B000280427042604031DDE2ADF2AF82A003037
:1005C000AD000030AC000030AB000030AA0080303D
:1005D000AC047F30AD043708AE002E08AD042D0802
:1005E000A9002C08A8002B08A7002A08A600532C55
:1005F0003E08031DFC2AFD2A062B0030A90000300E
:10060000A8000030A7000030A600532C3E08AE0022
:10061000AF012F08B1003F082E02B000031CB10348
:1006200030087F3EB80031080318013E003EB90093
:100630002D08B6002C08B5002B08B4002A08B3001A
:100640000030AD000030AC000030AB000030AA003C
:100650000030BD000030BC000030BB000030BA00EC
:10066000BF017C2B3F080319362B372B572B01304A
:10067000AE000310B30DB40DB50DB60DAE0B392B96
:100680000130AE000310AA0DAB0DAC0DAD0DAE0BDD
:10069000422BBD1F4C2B4D2B4E2B2A140130AE008C
:1006A0000310BA0DBB0DBC0DBD0DAE0B502B2908B0
:1006B0003602031D652B28083502031D652B27080C
:1006C0003402031D652B26083302031C682B692B9B
:1006D000782B3D172608B3022708031C270FB40206
:1006E0002808031C280FB5022908031C290FB6028D
:1006F0000130AE002E08BF071A303F02031C812BC9
:10070000822B322B36083504340433040319892B29
:100710008A2BA92B3A14A92B0130AE000310AA0D85
:10072000AB0DAC0DAD0DAE0B8E2BBD1F982B992BC9
:100730009A2B2A140130AE000310BA0DBB0DBC0D6C
:10074000BD0DAE0B9C2BFF30B8070318B90AFF3064
:10075000B907AC1FAC2BAD2B8C2BBF01BD1FB12B30
:10076000B22BCE2BFF303A05AE00FF303B05AF0079
:10077000FF303C05B0007F303D05B100310830044A
:100780002F042E040319C52BC62BC92BBF01BF0A8A
:10079000CE2B2A1CCC2BCD2BCE2BC62B3F080319DE
:1007A000D22BD32B042C0130AA07003003180130C0
:1007B000AB07003003180130AC07003003180130DC
:1007C000AD072D1CE42BE52B042C2A08AE002B08CA
:1007D000AF002C08B0002D08B1000130B200310D7F
:1007E000B10CB00CAF0CAE0CB20BEF2B3108AD005E
:1007F0003008AC002F08AB002E08AA000130B80763
:100800000318B90A0030B9073908803AFF00803070
:100810007F02031D0D2CFF303802031C102C112CFD
:100820001F2CFF3083120313B8000030B9000030D2
:10083000AD000030AC000030AB000030AA008312E5
:1008400003133908803AFF0080307F02031D2A2CF1
:100850000130380203182D2C2E2C3B2C831203134D
:10086000B801B9010030AD000030AC000030AB0081
:100870000030AA00B701831203133808BE003E1CE3
:10088000422C432C452CAC17492C7F30AE002E084F
:10089000AC053E08AE0003102E0CAD003708AE00CC
:1008A0002E08AD04EF2A0800831203134A08F30050
:1008B0004B08F400F501F60100300A128A11E12517
:1008C0000A128A11760883120313A9007508A8007A
:1008D0007408A7007308A6004830AD00C330AC0010
:1008E0005030AB000030AA000A128A1181220A128D
:1008F0008A11831203132908D3002808D20027087D
:10090000D1002608D0005308AF005208AE005108AD
:10091000AD005008AC004730B3008030B20000306A
:10092000B1000030B0000A128A11DC260A128A11C6
:10093000831203132F08D3002E08D2002D08D100F4
:100940002C08D0005308AD005208AC005108AB0091
:100950005008AA004330A9008030A8000030A7004A
:100960000030A6000A128A1181220A128A1183120B
:1009700003132908C3002808C2002708C10026085D
:10098000C0000A128A1188270A128A1183120313DF
:100990004008DC005308B3005208B2005108B1000F
:1009A0005008B0005C08CE00CF014E08CF00CE0149
:1009B0004E08F3004F08F4000030F41BFF30F50040
:1009C000F60001300A128A11E1250A128A1176080E
:1009D00083120313AF007508AE007408AD007308EE
:1009E000AC000A128A11DC260A128A118312031340
:1009F0002F08C3002E08C2002D08C1002C08C0001B
:100A00000A128A1188270A128A11831203134008D6
:100A1000DB005C088F005B088E0010144D08F400AA
:100A20004C08F3000A128A158D270A128A118312C4
:100A30000313101008008316031789018801831619
:100A400003130711831203130711831603130614EC
:100A500086148312031386018316031388018312FD
:100A600003138801101090109016101283160313B0
:100A70000C14831203130C108B170B170B168B100F
:100A8000831603138113013095000113831203139E
:100A9000861C4B2D4C2DDA2DDA018618502D512D48
:100AA0005B2DCB2D033088006B2D073088006B2D1C
:100AB000013088006B2D5D08D400D5015508003A3F
:100AC0000319632D582D5408023A0319522D013A87
:100AD0000319552D582D5D08D400D5015408F30095
:100AE0005508F4005A08A03E840083130008D6007D
:100AF000D7015608F5005708F6000A128A15A927EB
:100B00000A128A11740883120313D9007308D800DB
:100B10005A08D4005407013E84000A128A110027A3
:100B20000A128A11CA000A128A1100270A128A11AF
:100B3000CB005908F4005808F3006430F500003089
:100B4000F6000A128A15A9270A128A11740883125C
:100B50000313CD007308CC000A128A1154240A1220
:100B60008A11023083120313D6004530D500A93014
:100B7000D400D40BB92DD50BB92DD60BB92D01301E
:100B800083120313D4005408DA0741305A02031CBD
:100B9000CA2DCB2D4D2D4D3083120313D6001930A5
:100BA000D5004F30D400D40BD32DD50BD32DD60B7D
:100BB000D32D462D8801DD01DD0A462D0A128A114A
:100BC0000C2883120313A00020080319E82DE92D37
:100BD000FD2DF61FEC2DED2DFD2D7309A2007409DE
:100BE000A3007509A4007609A500A20A0319A30AA7
:100BF0000319A40A0319A50A052E7608A50075088D
:100C0000A4007408A3007308A20076087504740495
:100C10007304031D0C2E0D2E162E0030F60000302E
:100C2000F5000030F4000030F3009A2E9630A10059
:100C3000262E0130F7007708A10701300310A50C1C
:100C4000A40CA30CA20CFF3E031D1E2EFE30250596
:100C5000031D2B2E2C2E192E482E0130F70077085D
:100C6000A1070130A207003003180130A3070030AC
:100C700003180130A407003003180130A507013024
:100C80000310A50CA40CA30CA20CFF3E031D402EC8
:100C9000FF302505031D4D2E4E2E2D2E5A2E0130D0
:100CA000A1020130F7000310A20DA30DA40DA50DA4
:100CB000F70B532EA41B5D2E5E2E642E02302102F4
:100CC0000318632E642E4F2E2118672E682E702E67
:100CD000FF30A205FF30A3057F30A405FF30A50536
:100CE0000310A10C2108F700F801F901FA011830EE
:100CF0000310F70DF80DF90DFA0DFF3E031D782EC8
:100D00007708A2047808A3047908A4047A08A50443
:100D1000200803198C2E8D2E922EF61F902E912EC8
:100D2000922EA5172508F6002408F5002308F400E4
:100D30002208F30008000134013402340234013483
:100D400001340234023401340134023402340134F7
:100D500001340134013402340134013402340234E8
:100D600001340134023402340134013402340234D7
:100D700001340134023402340134013402340234C7
:100D800001340134023402340134013402340234B7
:100D900001340134013401340234013401340234A9
:100DA0000234023401340134023401340134023497
:100DB0000234013401340434803083120313AF064B
:100DC0003308F6003208F5003108F4003008F3006B
:100DD0002F08FA002E08F9002D08F8002C08F7005B
:100DE0000A128A1129200A128A1176088312031323
:100DF000AF007508AE007408AD007308AC000800C1
:100E000007308A000408840A82070034F73400346B
:100E1000263401344A3401344A3401344A3401342A
:100E20007234013488340134883401348834013414
:100E3000B834013472340134723401344A34013428
:100E400026340134263401344A3401344A3401341E
:100E5000F7340034263401344A3401344A3401343E
:100E60004A34013472340134883401348834013412
:100E700088340134B83401347234013472340134AA
:100E80004A340134263401344A3401344A340134BA
:100E9000F7340034263401344A3401344A340134FE
:100EA0004A34013488340134B8340134B83401345C
:100EB000B8340134EE3401340B3402340B340234D0
:100EC000EE340134B8340134EE3401344A340134A0
:100ED0004A3401344A3401347234013488340134E0
:100EE00088340134B8340134EE3401344A340134E6
:100EF0004A3401344A3401348834013472340134C0
:100F0000723401344A340134263401344A34013411
:100F1000031083120313420D430DC9004908031D3A
:100F2000922F932F9C2F0030C3000030C20000305E
:100F3000C1000030C000FF2F4008C4004108C500B8
:100F40004208C6004308C7001F300310C70CC60C78
:100F5000C50CC40CFF3E031DA52F4408C800C217D2
:100F6000FF30C005FF30C105FF30C2050030C305AA
:100F70009630C902C91FBD2FBE2FD82F4908803A0D
:100F8000973E0318C42FC52FC62F932F013003108F
:100F9000C30CC20CC10CC00CFF3E031DC72F013097
:100FA000C4004408C907031DD62FD72FC62FEF2F23
:100FB00020304902031CDD2FDE2FEA2F932F013052
:100FC000C4000310C00DC10DC20DC30DC40BE12F31
:100FD0000130C9024908031DEE2FEF2FDF2F48080B
:100FE0000319F32FF42FFF2FC009C109C209C30948
:100FF000C00A0319C10A0319C20A0319C30A080067
:101EF4007E088A007F0882000A128A157A270A124D
:101F04008A158000840A04087D0603190034FF0A38
:101F14000319FE0A7E2FF701F8019E2F0730F60001
:101F24007D30F500F50B942FF60B942F0130F70755
:101F34000318F80A0030F80774087802031DA42F68
:101F440073087702031CA72FA82F902F0800F7010E
:101F5400F801731CAE2FAF2FB52F7508F7070318C0
:101F6400F80A7608F80701300310F50DF60DFF3E68
:101F7400031DB62F01300310F40CF30CFF3E031DB8
:101F8400BD2F73087404031DC82FC92FAB2F780805
:101F9400F4007708F30008008B1CD12FD22FE12F17
:101FA4000130F000700883120313DD0704305D0272
:101FB400031CDD2FDE2FE02FDD01DD0A8B108312E1
:101FC40003130C1CE62FE72FF92F5C088F005B0826
:101FD4008E000310071D03140318F12FF52F83122D
:101FE40003130715F82F8312031307110C1072083B
:0C1FF4008A00710E8300FE0E7E0E0900B4
:08400000FF3FFF3FFF3FFF3FC0
:04400E00E220FF3F6E
:00000001FF
